:100000000C944C000C946B000C946B000C946B00E3
:100010000C946B000C946B000C946B000C946B00B4
:100020000C946B000C946B000C946B000C946B00A4
:100030000C946B000C946B000C946B000C946B0094
:100040000C946B000C94B2000C946B000C946B003D
:100050000C946B000C946B000C946B000C946B0074
:100060000C946B000C946B000C946B000C946B0064
:100070000C946B000C946B000C946B000C946B0054
:100080000C946B000C946B000C946B000C946B0044
:100090000C946B000C946B0011241FBECFEFD0E2C8
:1000A000DEBFCDBF11E0A0E0B1E0EEECF1E000E09A
:1000B0000BBF02C007900D92A030B107D9F711E035
:1000C000A0E0B1E001C01D92A430B107E1F70E94A9
:1000D00086000C94E5000C940000279A83E884BD08
:1000E00081E080936E0093E095BD82E08093800074
:1000F000909381008CE790E0909389008093880032
:10010000EFE6F0E080818260808308950E946D00B8
:1001100084E18093000187BD789494E140E157E247
:10012000292F332727FD3095CA010197F1F7F8945D
:100130009091030180910301817080930301789471
:100140009595892F992787FD9095820F931F2817E2
:10015000390751F38230910514F492E001C0982FD1
:1001600097BDDECF1F920F920FB60F9211242F93DF
:100170008F939F938CB184FD02C020E001C023E0E7
:1001800085FF02C081E0282790910201921B90FF19
:1001900009C0209302018091030181509270890F60
:1001A000809303019F918F912F910F900FBE0F901D
:1001B0001F901895F894809103019091030191701C
:0E01C00090930301789485950895F894FFCFED
:00000001FF
